{
  "contractName": "KeyDistribution",
  "abi": [
    {
      "inputs": [],
      "stateMutability": "nonpayable",
      "type": "constructor"
    },
    {
      "inputs": [],
      "name": "getKey",
      "outputs": [
        {
          "internalType": "uint256",
          "name": "",
          "type": "uint256"
        }
      ],
      "stateMutability": "nonpayable",
      "type": "function"
    }
  ],
  "bytecode": "0x6080604052600060065534801561001557600080fd5b5060005b6005811015610069576207d15960018261003391906100a8565b61003d91906100dc565b600082600581106100515761005061011e565b5b018190555080806100619061014d565b915050610019565b50610195565b6000819050919050565b7f4e487b7100000000000000000000000000000000000000000000000000000000600052601160045260246000fd5b60006100b38261006f565b91506100be8361006f565b92508282019050808211156100d6576100d5610079565b5b92915050565b60006100e78261006f565b91506100f28361006f565b92508282026101008161006f565b9150828204841483151761011757610116610079565b5b5092915050565b7f4e487b7100000000000000000000000000000000000000000000000000000000600052603260045260246000fd5b60006101588261006f565b91507fffffffffffffffffffffffffffffffffffffffffffffffffffffffffffffffff820361018a57610189610079565b5b600182019050919050565b6101e9806101a46000396000f3fe608060405234801561001057600080fd5b506004361061002b5760003560e01c806382678dd614610030575b600080fd5b61003861004e565b60405161004591906100be565b60405180910390f35b600060056006541061006357600090506100a2565b6006600081548092919061007690610108565b91905055506000600160065461008c9190610150565b6005811061009d5761009c610184565b5b015490505b90565b6000819050919050565b6100b8816100a5565b82525050565b60006020820190506100d360008301846100af565b92915050565b7f4e487b7100000000000000000000000000000000000000000000000000000000600052601160045260246000fd5b6000610113826100a5565b91507fffffffffffffffffffffffffffffffffffffffffffffffffffffffffffffffff8203610145576101446100d9565b5b600182019050919050565b600061015b826100a5565b9150610166836100a5565b925082820390508181111561017e5761017d6100d9565b5b92915050565b7f4e487b7100000000000000000000000000000000000000000000000000000000600052603260045260246000fdfea264697066735822122023293f9a4322a15aca610bf968d30868b18a0387d80e6dcf359f79627bf0497c64736f6c63430008130033",
  "immutableReferences": {},
  "source": "// SPDX-License-Identifier: GPL-3.0\npragma solidity ^0.8.0;\n\ncontract KeyDistribution {\n\n    uint256 private constant key_count = 5;\n    uint256[key_count] private th_keys;\n    uint256[] private taken;\n    uint256 private iterator = 0 ;\n    constructor() {\n        // Initialize key generation parameters (simplified)\n        for(uint256 i = 0 ; i < key_count;i++){\n            th_keys[i] = (i+1)*512345;\n        }\n    }\n    function generateRandomNumber(uint256 min, uint256 max) internal view returns (uint256) {\n        require(min <= max, \"Invalid range\");\n        uint256 randomNumber = uint256(keccak256(abi.encodePacked(block.timestamp, msg.sender, blockhash(block.number - 1))));\n        return (randomNumber % (max - min + 1)) + min;\n    }\n    function getKey() public returns (uint256){\n        if(iterator>=key_count)\n            return 0;\n        iterator++;\n        return th_keys[iterator - 1];\n        \n    }\n   \n}\n",
  "sourcePath": "/home/adnantech17/Documents/voting-smart-contract-develop/contracts/KeyDistribution.sol",
  "compiler": {
    "name": "solc",
    "version": "0.8.19+commit.7dd6d404.Emscripten.clang"
  },
  "schemaVersion": "3.4.16",
  "updatedAt": "2024-01-07T04:55:03.289Z",
  "networkType": "ethereum",
  "devdoc": {
    "kind": "dev",
    "methods": {},
    "version": 1
  },
  "userdoc": {
    "kind": "user",
    "methods": {},
    "version": 1
  }
}