{
  "contractName": "Voting",
  "abi": [
    {
      "inputs": [],
      "stateMutability": "nonpayable",
      "type": "constructor"
    },
    {
      "inputs": [
        {
          "internalType": "uint256[5]",
          "name": "vote",
          "type": "uint256[5]"
        }
      ],
      "name": "performVote",
      "outputs": [
        {
          "internalType": "bytes32",
          "name": "",
          "type": "bytes32"
        }
      ],
      "stateMutability": "nonpayable",
      "type": "function"
    },
    {
      "inputs": [],
      "name": "voteCount",
      "outputs": [
        {
          "internalType": "uint256[5]",
          "name": "",
          "type": "uint256[5]"
        }
      ],
      "stateMutability": "nonpayable",
      "type": "function"
    },
    {
      "inputs": [
        {
          "internalType": "uint256",
          "name": "key",
          "type": "uint256"
        }
      ],
      "name": "submitKey",
      "outputs": [
        {
          "internalType": "string",
          "name": "",
          "type": "string"
        }
      ],
      "stateMutability": "nonpayable",
      "type": "function"
    },
    {
      "inputs": [
        {
          "internalType": "uint256",
          "name": "input",
          "type": "uint256"
        }
      ],
      "name": "generateVID",
      "outputs": [
        {
          "internalType": "bytes32",
          "name": "",
          "type": "bytes32"
        }
      ],
      "stateMutability": "pure",
      "type": "function",
      "constant": true
    },
    {
      "inputs": [
        {
          "internalType": "uint256",
          "name": "input",
          "type": "uint256"
        }
      ],
      "name": "uintToString",
      "outputs": [
        {
          "internalType": "string",
          "name": "",
          "type": "string"
        }
      ],
      "stateMutability": "pure",
      "type": "function",
      "constant": true
    },
    {
      "inputs": [],
      "name": "getVIDs",
      "outputs": [
        {
          "internalType": "bytes32[]",
          "name": "",
          "type": "bytes32[]"
        }
      ],
      "stateMutability": "view",
      "type": "function",
      "constant": true
    }
  ],
  "bytecode": "0x60806040523480156200001157600080fd5b50633b9aca09600081905550633b9aca076001819055506001546000546200003a91906200028a565b60028190555060018054620000509190620002d5565b6001600054620000619190620002d5565b6200006d91906200028a565b6004819055506200008d600454600254620f42406200018b60201b60201c565b60058190555060405180606001604052806002548152602001600254600254620000b891906200028a565b81526020016001600254620000ce919062000310565b8152506013600082015181600001556020820151816001015560408201518160020155905050604051806040016040528060045481526020016005548152506016600082015181600001556020820151816001015590505060005b600581101562000184576207d15960018262000146919062000310565b6200015291906200028a565b600e82600581106200016957620001686200034b565b5b018190555080806200017b906200037a565b91505062000129565b5062000466565b60008084905060006001905060005b620001ac86866200023660201b60201c565b8110156200022957858260018589620001c69190620003f6565b620001d2919062000310565b620001de91906200028a565b620001ea91906200042e565b9150858783620001fb91906200028a565b6200020791906200042e565b925060018303156200022957808062000220906200037a565b9150506200019a565b5080925050509392505050565b600081831062000247578162000249565b825b905092915050565b6000819050919050565b7f4e487b7100000000000000000000000000000000000000000000000000000000600052601160045260246000fd5b6000620002978262000251565b9150620002a48362000251565b9250828202620002b48162000251565b91508282048414831517620002ce57620002cd6200025b565b5b5092915050565b6000620002e28262000251565b9150620002ef8362000251565b92508282039050818111156200030a57620003096200025b565b5b92915050565b60006200031d8262000251565b91506200032a8362000251565b92508282019050808211156200034557620003446200025b565b5b92915050565b7f4e487b7100000000000000000000000000000000000000000000000000000000600052603260045260246000fd5b6000620003878262000251565b91507fffffffffffffffffffffffffffffffffffffffffffffffffffffffffffffffff8203620003bc57620003bb6200025b565b5b600182019050919050565b7f4e487b7100000000000000000000000000000000000000000000000000000000600052601260045260246000fd5b6000620004038262000251565b9150620004108362000251565b925082620004235762000422620003c7565b5b828204905092915050565b60006200043b8262000251565b9150620004488362000251565b9250826200045b576200045a620003c7565b5b828206905092915050565b6111ec80620004766000396000f3fe608060405234801561001057600080fd5b50600436106100625760003560e01c80630dd5346d146100675780632cf1bf5514610097578063ad513fa2146100b5578063bedfcfda146100e5578063c638407114610115578063e939567914610133575b600080fd5b610081600480360381019061007c9190610b92565b610163565b60405161008e9190610bd8565b60405180910390f35b61009f610250565b6040516100ac9190610cb1565b60405180910390f35b6100cf60048036038101906100ca9190610cd3565b6102a8565b6040516100dc9190610d7f565b60405180910390f35b6100ff60048036038101906100fa9190610cd3565b6103f5565b60405161010c9190610bd8565b60405180910390f35b61011d610461565b60405161012a9190610e4c565b60405180910390f35b61014d60048036038101906101489190610cd3565b610586565b60405161015a9190610d7f565b60405180910390f35b600080600090505b60058110156101c35761019483826005811061018a57610189610e67565b5b60200201516106e7565b8382600581106101a7576101a6610e67565b5b60200201818152505080806101bb90610ec5565b91505061016b565b5060068290806001815401808255809150506001900390600052602060002090600502016000909190919091509060056101fe929190610987565b50600061020f6006805490506103f5565b9050600c8190806001815401808255809150506001900390600052602060002001600090919091909150556102486006805490506103f5565b915050919050565b6060600c80548060200260200160405190810160405280929190818152602001828054801561029e57602002820191906000526020600020905b81548152602001906001019080831161028a575b5050505050905090565b606060005b600d805490508110156103135782600d82815481106102cf576102ce610e67565b5b90600052602060002001540361030057604051806060016040528060228152602001611195602291399150506103f0565b808061030b90610ec5565b9150506102ad565b5060005b60058110156103b65782600e826005811061033557610334610e67565b5b0154036103a357600d8390806001815401808255809150506001900390600052602060002001600090919091909150556040518060400160405280601a81526020017f4b6579207375626d6974746564207375636365737366756c6c790000000000008152509150506103f0565b80806103ae90610ec5565b915050610317565b506040518060400160405280601981526020017f50726f7669646564206b657920697320696e636f72726563740000000000000081525090505b919050565b60008061040183610586565b905060006002826040516104159190610f54565b602060405180830381855afa158015610432573d6000803e3d6000fd5b5050506040513d601f19601f820116820180604052508101906104559190610f97565b90508092505050919050565b6104696109c7565b6001600d80549050101561047c57600080fd5b60005b60058110156104be5761049260006106e7565b600782600581106104a6576104a5610e67565b5b018190555080806104b690610ec5565b91505061047f565b5060005b6006805490508110156104eb576104d881610785565b80806104e390610ec5565b9150506104c2565b5060005b6005811015610542576105166007826005811061050f5761050e610e67565b5b0154610815565b6007826005811061052a57610529610e67565b5b0181905550808061053a90610ec5565b9150506104ef565b50600760058060200260405190810160405280929190826005801561057c576020028201915b815481526020019060010190808311610568575b5050505050905090565b6060600082036105cd576040518060400160405280600181526020017f300000000000000000000000000000000000000000000000000000000000000081525090506106e2565b600082905060005b60008211156106005780806105e990610ec5565b915050600a826105f99190610ff3565b91506105d5565b60008167ffffffffffffffff81111561061c5761061b610a2b565b5b6040519080825280601f01601f19166020018201604052801561064e5781602001600182028036833780820191505090505b5090505b60008511156106db57818061066690611024565b925050600a85610676919061104d565b6030610682919061107e565b60f81b81838151811061069857610697610e67565b5b60200101907effffffffffffffffffffffffffffffffffffffffffffffffffffffffffffff1916908160001a905350600a856106d49190610ff3565b9450610652565b8093505050505b919050565b6000600254821061072d576040517f08c379a0000000000000000000000000000000000000000000000000000000008152600401610724906110fe565b60405180910390fd5b600060059050600061074a8260136000015460136001015461088a565b9050601360010154816107686013600201548760136001015461088a565b610772919061111e565b61077c919061104d565b92505050919050565b60005b6005811015610811576107e5600683815481106107a8576107a7610e67565b5b906000526020600020906005020182600581106107c8576107c7610e67565b5b0154600783600581106107de576107dd610e67565b5b0154610961565b600782600581106107f9576107f8610e67565b5b0181905550808061080990610ec5565b915050610788565b5050565b60008060136001015460016108358560166000015460136001015461088a565b61083f9190611160565b610849919061104d565b905060006013600001546016600101546013600001548461086a9190610ff3565b610874919061111e565b61087e919061104d565b90508092505050919050565b6000818411156108a35781846108a09190611160565b93505b600083036108b4576001905061095a565b60006002846108c3919061104d565b036109025760006108e1856002866108db9190610ff3565b8561088a565b90508281826108f0919061111e565b6108fa919061104d565b91505061095a565b60006109278560026001876109179190611160565b6109219190610ff3565b8561088a565b905082838283610937919061111e565b610941919061104d565b8661094c919061111e565b610956919061104d565b9150505b9392505050565b60006013600101548284610975919061111e565b61097f919061104d565b905092915050565b82600581019282156109b6579160200282015b828111156109b557825182559160200191906001019061099a565b5b5090506109c391906109e9565b5090565b6040518060a00160405280600590602082028036833780820191505090505090565b5b80821115610a025760008160009055506001016109ea565b5090565b6000604051905090565b600080fd5b600080fd5b6000601f19601f8301169050919050565b7f4e487b7100000000000000000000000000000000000000000000000000000000600052604160045260246000fd5b610a6382610a1a565b810181811067ffffffffffffffff82111715610a8257610a81610a2b565b5b80604052505050565b6000610a95610a06565b9050610aa18282610a5a565b919050565b600067ffffffffffffffff821115610ac157610ac0610a2b565b5b602082029050919050565b600080fd5b6000819050919050565b610ae481610ad1565b8114610aef57600080fd5b50565b600081359050610b0181610adb565b92915050565b6000610b1a610b1584610aa6565b610a8b565b90508060208402830185811115610b3457610b33610acc565b5b835b81811015610b5d5780610b498882610af2565b845260208401935050602081019050610b36565b5050509392505050565b600082601f830112610b7c57610b7b610a15565b5b6005610b89848285610b07565b91505092915050565b600060a08284031215610ba857610ba7610a10565b5b6000610bb684828501610b67565b91505092915050565b6000819050919050565b610bd281610bbf565b82525050565b6000602082019050610bed6000830184610bc9565b92915050565b600081519050919050565b600082825260208201905092915050565b6000819050602082019050919050565b610c2881610bbf565b82525050565b6000610c3a8383610c1f565b60208301905092915050565b6000602082019050919050565b6000610c5e82610bf3565b610c688185610bfe565b9350610c7383610c0f565b8060005b83811015610ca4578151610c8b8882610c2e565b9750610c9683610c46565b925050600181019050610c77565b5085935050505092915050565b60006020820190508181036000830152610ccb8184610c53565b905092915050565b600060208284031215610ce957610ce8610a10565b5b6000610cf784828501610af2565b91505092915050565b600081519050919050565b600082825260208201905092915050565b60005b83811015610d3a578082015181840152602081019050610d1f565b60008484015250505050565b6000610d5182610d00565b610d5b8185610d0b565b9350610d6b818560208601610d1c565b610d7481610a1a565b840191505092915050565b60006020820190508181036000830152610d998184610d46565b905092915050565b600060059050919050565b600081905092915050565b6000819050919050565b610dca81610ad1565b82525050565b6000610ddc8383610dc1565b60208301905092915050565b6000602082019050919050565b610dfe81610da1565b610e088184610dac565b9250610e1382610db7565b8060005b83811015610e44578151610e2b8782610dd0565b9650610e3683610de8565b925050600181019050610e17565b505050505050565b600060a082019050610e616000830184610df5565b92915050565b7f4e487b7100000000000000000000000000000000000000000000000000000000600052603260045260246000fd5b7f4e487b7100000000000000000000000000000000000000000000000000000000600052601160045260246000fd5b6000610ed082610ad1565b91507fffffffffffffffffffffffffffffffffffffffffffffffffffffffffffffffff8203610f0257610f01610e96565b5b600182019050919050565b600081519050919050565b600081905092915050565b6000610f2e82610f0d565b610f388185610f18565b9350610f48818560208601610d1c565b80840191505092915050565b6000610f608284610f23565b915081905092915050565b610f7481610bbf565b8114610f7f57600080fd5b50565b600081519050610f9181610f6b565b92915050565b600060208284031215610fad57610fac610a10565b5b6000610fbb84828501610f82565b91505092915050565b7f4e487b7100000000000000000000000000000000000000000000000000000000600052601260045260246000fd5b6000610ffe82610ad1565b915061100983610ad1565b92508261101957611018610fc4565b5b828204905092915050565b600061102f82610ad1565b91506000820361104257611041610e96565b5b600182039050919050565b600061105882610ad1565b915061106383610ad1565b92508261107357611072610fc4565b5b828206905092915050565b600061108982610ad1565b915061109483610ad1565b92508282019050808211156110ac576110ab610e96565b5b92915050565b7f506c61696e74657874206d75737420626520736d616c6c6572207468616e206e600082015250565b60006110e8602083610d0b565b91506110f3826110b2565b602082019050919050565b60006020820190508181036000830152611117816110db565b9050919050565b600061112982610ad1565b915061113483610ad1565b925082820261114281610ad1565b9150828204841483151761115957611158610e96565b5b5092915050565b600061116b82610ad1565b915061117683610ad1565b925082820390508181111561118e5761118d610e96565b5b9291505056fe54686973206b657920697320616c7265616479207375626d6974746564206f6e6365a2646970667358221220ee858cfab8ffbd01955bb5ebde2afdb676a9210594bd0e27a82ce59f9682596e64736f6c63430008130033",
  "immutableReferences": {},
  "source": "// SPDX-License-Identifier: GPL-3.0\npragma solidity ^0.8.0;\n\ncontract Voting {\n    uint256 private p;\n    uint256 private q;\n    uint256 private n;\n    uint256 private g;\n    uint256 private l;\n    uint256 private m;\n    uint256 private constant candidate_count = 5;\n\n    uint256[candidate_count][] private votes;\n    uint256[candidate_count] private countedVotes;\n    bytes32[] private vids; \n\n    uint256 private constant key_count = 5;\n    uint256 private constant thresh = 1;\n    uint256 [] private receivedKeys;\n    uint256[key_count] private th_keys;\n    \n    \n    struct PrivateKey {\n        uint256 l;\n        uint256 m;\n    }\n\n    struct PublicKey {\n        uint256 n;\n        uint256 n_sq;\n        uint256 g;\n    }\n\n    PublicKey publicKey;\n    PrivateKey privateKey;\n\n    constructor() {\n        // Initialize key generation parameters (simplified)\n        p = 1000000009; // Replace with a prime number\n        q = 1000000007; // Replace with another prime number\n        n = p * q;\n        l = (p - 1) * (q - 1);\n        m = modInverse(l, n, 1000000); // Calculate the modular inverse\n\n        publicKey = PublicKey(n, n * n, n + 1);\n        privateKey = PrivateKey(l, m);\n\n        for(uint256 i = 0 ; i < key_count;i++){\n            th_keys[i] = (i+1)*512345;\n        }\n        \n    }\n\n    function modInverse(uint256 a, uint256 pp, uint256 maxiter) internal pure returns (uint256) {\n        uint256 r = a;\n        uint256 d = 1;\n        for (uint256 i = 0; i < min(pp, maxiter); i++) {\n            d = ((pp / r + 1) * d) % pp;\n            r = (d * a) % pp;\n            if (r == 1) {\n                break;\n            }\n        }\n        return d;\n    }\n\n    function min(uint256 a, uint256 b) internal pure returns (uint256) {\n        return a < b ? a : b;\n    }\n\n    function encrypt(uint256 plaintext) internal view returns (uint256) {\n        require(plaintext < n, \"Plaintext must be smaller than n\");\n        uint256 r = 5;\n        uint256 x = powmod(r, publicKey.n, publicKey.n_sq);\n        return (powmod(publicKey.g, plaintext, publicKey.n_sq) * x) % publicKey.n_sq;\n    }\n\n    function decrypt(uint256 ciphertext) internal view returns (uint256) {\n        uint256 c1 = (powmod(ciphertext, privateKey.l, publicKey.n_sq) - 1) % publicKey.n_sq;\n        uint256 plaintext = ((c1 / publicKey.n) * privateKey.m) % publicKey.n;\n\n        return plaintext;\n    }\n\n    function add(uint256 a_enc, uint256 b_enc) internal view returns (uint256) {\n        return (a_enc * b_enc) % publicKey.n_sq;\n    }\n\n    function addVotes(uint256 x) internal {\n        for (uint256 i = 0; i < candidate_count; i++) {\n            countedVotes[i] = add(votes[x][i], countedVotes[i]);\n        }\n    }\n\n    function powmod(uint256 a, uint256 b, uint256 nn) internal pure returns (uint256) {\n        if (a > nn) {\n            a -= nn;\n        }\n        if (b == 0) {\n            return 1;\n        } else if (b % 2 == 0) {\n            uint256 temp = powmod(a, b / 2, nn);\n            return (temp * temp) % nn;\n        } else {\n            uint256 temp = powmod(a, (b - 1) / 2, nn);\n            return (a * ((temp * temp) % nn)) % nn;\n        }\n    }\n\n    function performVote(uint256[candidate_count] memory vote) public returns (bytes32) {\n        for (uint256 i = 0; i < vote.length; i++) {\n            vote[i] = encrypt(vote[i]);\n        }\n        votes.push(vote);\n        bytes32 vid = generateVID(votes.length);\n        vids.push(vid);\n        return generateVID(votes.length);\n    }\n\n    function voteCount() public returns (uint256[candidate_count] memory) {\n        require(receivedKeys.length >= thresh);\n        for (uint256 i = 0; i < candidate_count; i++) {\n            countedVotes[i] = encrypt(0);\n        }\n\n        for (uint256 i = 0; i < votes.length; i++) {\n            addVotes(i);\n        }\n\n        for (uint256 i = 0; i < candidate_count; i++) {\n            countedVotes[i] = decrypt(countedVotes[i]);\n        }\n        return countedVotes;\n    }\n\n    function submitKey(uint256 key) public returns(string memory){\n        for(uint256 i = 0 ; i < receivedKeys.length; i++){\n            if(receivedKeys[i] == key)\n                return \"This key is already submitted once\";\n        }\n        for(uint256 i = 0 ; i < key_count; i++){\n            if(th_keys[i] == key){\n                receivedKeys.push(key);\n                return \"Key submitted successfully\";\n            }\n        }\n        return \"Provided key is incorrect\"; \n    }\n\n\n\n\n   \n    function generateVID(uint256 input) public pure returns (bytes32) {\n        // Convert the integer to a string\n        string memory inputString = uintToString(input);\n        \n        // Hash the string\n        bytes32 hash = sha256(bytes(inputString));\n        \n        // Convert the bytes32 hash to a string\n        \n        return hash;\n    }\n    \n    function uintToString(uint256 input) public  pure returns (string memory) {\n        if (input == 0) {\n            return \"0\";\n        }\n        \n        uint256 temp = input;\n        uint256 length;\n        \n        while (temp > 0) {\n            length++;\n            temp /= 10;\n        }\n        \n        bytes memory buffer = new bytes(length);\n        while (input > 0) {\n            length--;\n            buffer[length] = bytes1(uint8(48 + input % 10));\n            input /= 10;\n        }\n        \n        return string(buffer);\n    }\n    function getVIDs() public view returns(bytes32[] memory){\n        return vids;\n    }\n    \n\n\n}\n",
  "sourcePath": "/home/adnantech17/Documents/voting-smart-contract-develop/contracts/Voting.sol",
  "compiler": {
    "name": "solc",
    "version": "0.8.19+commit.7dd6d404.Emscripten.clang"
  },
  "schemaVersion": "3.4.16",
  "updatedAt": "2024-01-07T04:55:05.141Z",
  "networkType": "ethereum",
  "devdoc": {
    "kind": "dev",
    "methods": {},
    "version": 1
  },
  "userdoc": {
    "kind": "user",
    "methods": {},
    "version": 1
  }
}